{
  "_format": "hh-sol-artifact-1",
  "contractName": "PayAfterProof",
  "sourceName": "contracts/PayAfterProof.sol",
  "abi": [
    {
      "inputs": [
        {
          "internalType": "address",
          "name": "_usdcToken",
          "type": "address"
        }
      ],
      "stateMutability": "nonpayable",
      "type": "constructor"
    },
    {
      "inputs": [
        {
          "internalType": "address",
          "name": "owner",
          "type": "address"
        }
      ],
      "name": "OwnableInvalidOwner",
      "type": "error"
    },
    {
      "inputs": [
        {
          "internalType": "address",
          "name": "account",
          "type": "address"
        }
      ],
      "name": "OwnableUnauthorizedAccount",
      "type": "error"
    },
    {
      "inputs": [],
      "name": "ReentrancyGuardReentrantCall",
      "type": "error"
    },
    {
      "anonymous": false,
      "inputs": [
        {
          "indexed": true,
          "internalType": "uint256",
          "name": "taskId",
          "type": "uint256"
        },
        {
          "indexed": false,
          "internalType": "uint256",
          "name": "amount",
          "type": "uint256"
        }
      ],
      "name": "EscrowDeposited",
      "type": "event"
    },
    {
      "anonymous": false,
      "inputs": [
        {
          "indexed": true,
          "internalType": "address",
          "name": "previousOwner",
          "type": "address"
        },
        {
          "indexed": true,
          "internalType": "address",
          "name": "newOwner",
          "type": "address"
        }
      ],
      "name": "OwnershipTransferred",
      "type": "event"
    },
    {
      "anonymous": false,
      "inputs": [
        {
          "indexed": true,
          "internalType": "uint256",
          "name": "taskId",
          "type": "uint256"
        },
        {
          "indexed": true,
          "internalType": "address",
          "name": "worker",
          "type": "address"
        },
        {
          "indexed": false,
          "internalType": "string",
          "name": "proofLink",
          "type": "string"
        }
      ],
      "name": "ProofSubmitted",
      "type": "event"
    },
    {
      "anonymous": false,
      "inputs": [
        {
          "indexed": true,
          "internalType": "uint256",
          "name": "taskId",
          "type": "uint256"
        },
        {
          "indexed": true,
          "internalType": "address",
          "name": "worker",
          "type": "address"
        }
      ],
      "name": "TaskAccepted",
      "type": "event"
    },
    {
      "anonymous": false,
      "inputs": [
        {
          "indexed": true,
          "internalType": "uint256",
          "name": "taskId",
          "type": "uint256"
        },
        {
          "indexed": true,
          "internalType": "address",
          "name": "creator",
          "type": "address"
        },
        {
          "indexed": false,
          "internalType": "uint256",
          "name": "rewardAmount",
          "type": "uint256"
        }
      ],
      "name": "TaskApproved",
      "type": "event"
    },
    {
      "anonymous": false,
      "inputs": [
        {
          "indexed": true,
          "internalType": "uint256",
          "name": "taskId",
          "type": "uint256"
        },
        {
          "indexed": true,
          "internalType": "address",
          "name": "creator",
          "type": "address"
        },
        {
          "indexed": false,
          "internalType": "uint256",
          "name": "rewardAmount",
          "type": "uint256"
        }
      ],
      "name": "TaskCancelled",
      "type": "event"
    },
    {
      "anonymous": false,
      "inputs": [
        {
          "indexed": true,
          "internalType": "uint256",
          "name": "taskId",
          "type": "uint256"
        },
        {
          "indexed": true,
          "internalType": "address",
          "name": "creator",
          "type": "address"
        },
        {
          "indexed": true,
          "internalType": "address",
          "name": "worker",
          "type": "address"
        },
        {
          "indexed": false,
          "internalType": "uint256",
          "name": "rewardAmount",
          "type": "uint256"
        },
        {
          "indexed": false,
          "internalType": "uint256",
          "name": "deadline",
          "type": "uint256"
        }
      ],
      "name": "TaskCreated",
      "type": "event"
    },
    {
      "anonymous": false,
      "inputs": [
        {
          "indexed": true,
          "internalType": "uint256",
          "name": "taskId",
          "type": "uint256"
        },
        {
          "indexed": true,
          "internalType": "address",
          "name": "creator",
          "type": "address"
        },
        {
          "indexed": false,
          "internalType": "uint256",
          "name": "rewardAmount",
          "type": "uint256"
        }
      ],
      "name": "TaskRefunded",
      "type": "event"
    },
    {
      "inputs": [
        {
          "internalType": "uint256",
          "name": "_taskId",
          "type": "uint256"
        }
      ],
      "name": "acceptTask",
      "outputs": [],
      "stateMutability": "nonpayable",
      "type": "function"
    },
    {
      "inputs": [
        {
          "internalType": "uint256",
          "name": "_taskId",
          "type": "uint256"
        }
      ],
      "name": "approveTask",
      "outputs": [],
      "stateMutability": "nonpayable",
      "type": "function"
    },
    {
      "inputs": [
        {
          "internalType": "uint256",
          "name": "_taskId",
          "type": "uint256"
        }
      ],
      "name": "cancelTask",
      "outputs": [],
      "stateMutability": "nonpayable",
      "type": "function"
    },
    {
      "inputs": [
        {
          "internalType": "address",
          "name": "_worker",
          "type": "address"
        },
        {
          "internalType": "uint256",
          "name": "_rewardAmount",
          "type": "uint256"
        },
        {
          "internalType": "uint256",
          "name": "_deadline",
          "type": "uint256"
        }
      ],
      "name": "createTask",
      "outputs": [
        {
          "internalType": "uint256",
          "name": "",
          "type": "uint256"
        }
      ],
      "stateMutability": "nonpayable",
      "type": "function"
    },
    {
      "inputs": [
        {
          "internalType": "uint256",
          "name": "",
          "type": "uint256"
        }
      ],
      "name": "escrowBalance",
      "outputs": [
        {
          "internalType": "uint256",
          "name": "",
          "type": "uint256"
        }
      ],
      "stateMutability": "view",
      "type": "function"
    },
    {
      "inputs": [
        {
          "internalType": "uint256",
          "name": "_taskId",
          "type": "uint256"
        }
      ],
      "name": "getEscrowBalance",
      "outputs": [
        {
          "internalType": "uint256",
          "name": "",
          "type": "uint256"
        }
      ],
      "stateMutability": "view",
      "type": "function"
    },
    {
      "inputs": [
        {
          "internalType": "uint256",
          "name": "_taskId",
          "type": "uint256"
        }
      ],
      "name": "getTask",
      "outputs": [
        {
          "components": [
            {
              "internalType": "address",
              "name": "creator",
              "type": "address"
            },
            {
              "internalType": "address",
              "name": "worker",
              "type": "address"
            },
            {
              "internalType": "uint256",
              "name": "rewardAmount",
              "type": "uint256"
            },
            {
              "internalType": "string",
              "name": "proofLink",
              "type": "string"
            },
            {
              "internalType": "enum PayAfterProof.TaskStatus",
              "name": "status",
              "type": "uint8"
            },
            {
              "internalType": "uint256",
              "name": "deadline",
              "type": "uint256"
            },
            {
              "internalType": "uint256",
              "name": "createdAt",
              "type": "uint256"
            }
          ],
          "internalType": "struct PayAfterProof.Task",
          "name": "",
          "type": "tuple"
        }
      ],
      "stateMutability": "view",
      "type": "function"
    },
    {
      "inputs": [
        {
          "internalType": "uint256",
          "name": "_taskId",
          "type": "uint256"
        }
      ],
      "name": "getTaskStatus",
      "outputs": [
        {
          "internalType": "enum PayAfterProof.TaskStatus",
          "name": "",
          "type": "uint8"
        }
      ],
      "stateMutability": "view",
      "type": "function"
    },
    {
      "inputs": [],
      "name": "getTotalTasks",
      "outputs": [
        {
          "internalType": "uint256",
          "name": "",
          "type": "uint256"
        }
      ],
      "stateMutability": "view",
      "type": "function"
    },
    {
      "inputs": [],
      "name": "owner",
      "outputs": [
        {
          "internalType": "address",
          "name": "",
          "type": "address"
        }
      ],
      "stateMutability": "view",
      "type": "function"
    },
    {
      "inputs": [
        {
          "internalType": "uint256",
          "name": "_taskId",
          "type": "uint256"
        }
      ],
      "name": "refundTask",
      "outputs": [],
      "stateMutability": "nonpayable",
      "type": "function"
    },
    {
      "inputs": [],
      "name": "renounceOwnership",
      "outputs": [],
      "stateMutability": "nonpayable",
      "type": "function"
    },
    {
      "inputs": [
        {
          "internalType": "address",
          "name": "_newToken",
          "type": "address"
        }
      ],
      "name": "setUSDCToken",
      "outputs": [],
      "stateMutability": "nonpayable",
      "type": "function"
    },
    {
      "inputs": [
        {
          "internalType": "uint256",
          "name": "_taskId",
          "type": "uint256"
        },
        {
          "internalType": "string",
          "name": "_proofLink",
          "type": "string"
        }
      ],
      "name": "submitProof",
      "outputs": [],
      "stateMutability": "nonpayable",
      "type": "function"
    },
    {
      "inputs": [],
      "name": "taskCounter",
      "outputs": [
        {
          "internalType": "uint256",
          "name": "",
          "type": "uint256"
        }
      ],
      "stateMutability": "view",
      "type": "function"
    },
    {
      "inputs": [
        {
          "internalType": "uint256",
          "name": "",
          "type": "uint256"
        }
      ],
      "name": "tasks",
      "outputs": [
        {
          "internalType": "address",
          "name": "creator",
          "type": "address"
        },
        {
          "internalType": "address",
          "name": "worker",
          "type": "address"
        },
        {
          "internalType": "uint256",
          "name": "rewardAmount",
          "type": "uint256"
        },
        {
          "internalType": "string",
          "name": "proofLink",
          "type": "string"
        },
        {
          "internalType": "enum PayAfterProof.TaskStatus",
          "name": "status",
          "type": "uint8"
        },
        {
          "internalType": "uint256",
          "name": "deadline",
          "type": "uint256"
        },
        {
          "internalType": "uint256",
          "name": "createdAt",
          "type": "uint256"
        }
      ],
      "stateMutability": "view",
      "type": "function"
    },
    {
      "inputs": [
        {
          "internalType": "address",
          "name": "newOwner",
          "type": "address"
        }
      ],
      "name": "transferOwnership",
      "outputs": [],
      "stateMutability": "nonpayable",
      "type": "function"
    },
    {
      "inputs": [],
      "name": "usdcToken",
      "outputs": [
        {
          "internalType": "contract IERC20",
          "name": "",
          "type": "address"
        }
      ],
      "stateMutability": "view",
      "type": "function"
    }
  ],
  "bytecode": "0x608060405260006002553480156200001657600080fd5b5060405162001c4938038062001c4983398101604081905262000039916200015f565b60017f9b779b17422d0df92223018b32b4d1fa46e071723d6817e2486d003becc55f005533806200008557604051631e4fbdf760e01b8152600060048201526024015b60405180910390fd5b62000090816200010f565b506001600160a01b038116620000e95760405162461bcd60e51b815260206004820152601560248201527f496e76616c696420746f6b656e2061646472657373000000000000000000000060448201526064016200007c565b600180546001600160a01b0319166001600160a01b039290921691909117905562000191565b600080546001600160a01b038381166001600160a01b0319831681178455604051919092169283917f8be0079c531659141344cd1fd0a4f28419497f9722a3daafe3b4186f6b6457e09190a35050565b6000602082840312156200017257600080fd5b81516001600160a01b03811681146200018a57600080fd5b9392505050565b611aa880620001a16000396000f3fe608060405234801561001057600080fd5b50600436106101165760003560e01c806358671730116100a25780638d977672116100715780638d977672146102485780638da5cb5b1461026e578063bb099ee31461027f578063f2fde38b1461029f578063fce60903146102b257600080fd5b806358671730146102115780636ca4ab571461021a578063715018a61461022d5780637eec20a81461023557600080fd5b80631d65e77e116100e95780631d65e77e1461018657806328677436146101a65780632af00510146101b95780633c93b905146101cc5780635290900b146101de57600080fd5b80630a07fae61461011b5780630f5a9d011461013057806311eac855146101435780631bf6912d14610173575b600080fd5b61012e61012936600461152e565b6102d2565b005b61012e61013e366004611563565b610511565b600154610156906001600160a01b031681565b6040516001600160a01b0390911681526020015b60405180910390f35b61012e61018136600461152e565b610589565b61019961019436600461152e565b61077a565b60405161016a91906115fc565b61012e6101b436600461152e565b6108e1565b61012e6101c7366004611676565b610b90565b6002545b60405190815260200161016a565b6102046101ec36600461152e565b60009081526003602052604090206004015460ff1690565b60405161016a91906116f2565b6101d060025481565b6101d0610228366004611706565b610d73565b61012e61110f565b61012e61024336600461152e565b611123565b61025b61025636600461152e565b611352565b60405161016a9796959493929190611739565b6000546001600160a01b0316610156565b6101d061028d36600461152e565b60046020526000908152604090205481565b61012e6102ad366004611563565b61142a565b6101d06102c036600461152e565b60009081526004602052604090205490565b6102da611465565b600081815260036020526040902080546001600160a01b031633146103465760405162461bcd60e51b815260206004820152601860248201527f4f6e6c792063726561746f722063616e20617070726f7665000000000000000060448201526064015b60405180910390fd5b6002600482015460ff166005811115610361576103616115c4565b146103a35760405162461bcd60e51b8152602060048201526012602482015271139bc81c1c9bdbd9881cdd589b5a5d1d195960721b604482015260640161033d565b6000828152600460205260409020546103ce5760405162461bcd60e51b815260040161033d90611790565b60028101546004808301805460ff19166003179055600084815260208290526040808220919091556001805490850154915163a9059cbb60e01b81526001600160a01b039283169381019390935260248301849052169063a9059cbb906044016020604051808303816000875af115801561044d573d6000803e3d6000fd5b505050506040513d601f19601f8201168201806040525081019061047191906117bb565b6104bd5760405162461bcd60e51b815260206004820152601e60248201527f55534443207472616e7366657220746f20776f726b6572206661696c65640000604482015260640161033d565b604051818152339084907f224350e49b29e656cb8c93d7379c7ddb4907c6009b64159a5e70d38092eae197906020015b60405180910390a3505061050e6001600080516020611a5383398151915255565b50565b610519611481565b6001600160a01b0381166105675760405162461bcd60e51b8152602060048201526015602482015274496e76616c696420746f6b656e206164647265737360581b604482015260640161033d565b600180546001600160a01b0319166001600160a01b0392909216919091179055565b610591611465565b600081815260036020526040812090600482015460ff1660058111156105b9576105b96115c4565b146105f95760405162461bcd60e51b815260206004820152601060248201526f2a30b9b59034b9903737ba1037b832b760811b604482015260640161033d565b80546001600160a01b031633036106525760405162461bcd60e51b815260206004820152601e60248201527f43726561746f722063616e6e6f7420616363657074206f776e207461736b0000604482015260640161033d565b60018101546001600160a01b03161580610678575060018101546001600160a01b031633145b6106c45760405162461bcd60e51b815260206004820152601760248201527f576f726b657220616c72656164792061737369676e6564000000000000000000604482015260640161033d565b806005015442111561070f5760405162461bcd60e51b815260206004820152601460248201527315185cdac8191958591b1a5b99481c185cdcd95960621b604482015260640161033d565b600180820180546001600160a01b0319163317905560048201805460ff191682800217905550604051339083907fc8717b61398fb9d7cacf49fe1e296b2f10e9711226b532842b6ffd642cb6a2c690600090a35061050e6001600080516020611a5383398151915255565b6107b96040805160e081018252600080825260208201819052918101829052606080820152906080820190815260200160008152602001600081525090565b600082815260036020818152604092839020835160e08101855281546001600160a01b039081168252600183015416928101929092526002810154938201939093529082018054919291606084019190610812906117dd565b80601f016020809104026020016040519081016040528092919081815260200182805461083e906117dd565b801561088b5780601f106108605761010080835404028352916020019161088b565b820191906000526020600020905b81548152906001019060200180831161086e57829003601f168201915b5050509183525050600482015460209091019060ff1660058111156108b2576108b26115c4565b60058111156108c3576108c36115c4565b81526005820154602082015260069091015460409091015292915050565b6108e9611465565b600081815260036020526040902080546001600160a01b031633146109505760405162461bcd60e51b815260206004820152601760248201527f4f6e6c792063726561746f722063616e20726566756e64000000000000000000604482015260640161033d565b6000600482015460ff16600581111561096b5761096b6115c4565b148061098f57506001600482015460ff16600581111561098d5761098d6115c4565b145b806109b257506002600482015460ff1660058111156109b0576109b06115c4565b145b6109fe5760405162461bcd60e51b815260206004820152601760248201527f5461736b2063616e6e6f7420626520726566756e646564000000000000000000604482015260640161033d565b80600501544211610a515760405162461bcd60e51b815260206004820152601e60248201527f43616e206f6e6c7920726566756e6420616674657220646561646c696e650000604482015260640161033d565b600082815260046020526040902054610a7c5760405162461bcd60e51b815260040161033d90611790565b60028101546004808301805460ff191682179055600084815260208290526040808220919091556001548454915163a9059cbb60e01b81526001600160a01b039283169381019390935260248301849052169063a9059cbb906044016020604051808303816000875af1158015610af7573d6000803e3d6000fd5b505050506040513d601f19601f82011682018060405250810190610b1b91906117bb565b610b5c5760405162461bcd60e51b81526020600482015260126024820152711554d110c81c99599d5b990819985a5b195960721b604482015260640161033d565b604051818152339084907f098446306d18a8ba797caf5ad3be836bc7fadb0fa82d207e934992497bdeaf61906020016104ed565b610b98611465565b600083815260036020526040902060018101546001600160a01b03163314610c025760405162461bcd60e51b815260206004820152601c60248201527f4f6e6c7920776f726b65722063616e207375626d69742070726f6f6600000000604482015260640161033d565b6001600482015460ff166005811115610c1d57610c1d6115c4565b14610c615760405162461bcd60e51b815260206004820152601460248201527315185cdac81a5cc81b9bdd081858d8d95c1d195960621b604482015260640161033d565b81610cae5760405162461bcd60e51b815260206004820152601a60248201527f50726f6f66206c696e6b2063616e6e6f7420626520656d707479000000000000604482015260640161033d565b8060050154421115610cf95760405162461bcd60e51b815260206004820152601460248201527315185cdac8191958591b1a5b99481c185cdcd95960621b604482015260640161033d565b60038101610d0883858361187b565b5060048101805460ff19166002179055604051339085907fb2217a1ebc8d6435d328a4607aa9709269fe4cb393535a1675721d8431a5401890610d4e908790879061193c565b60405180910390a350610d6e6001600080516020611a5383398151915255565b505050565b6000610d7d611465565b6001600160a01b03841615610de457336001600160a01b03851603610de45760405162461bcd60e51b815260206004820152601c60248201527f576f726b65722063616e6e6f74206265207468652063726561746f7200000000604482015260640161033d565b60008311610e345760405162461bcd60e51b815260206004820152601d60248201527f526577617264206d7573742062652067726561746572207468616e2030000000604482015260640161033d565b428211610e835760405162461bcd60e51b815260206004820152601e60248201527f446561646c696e65206d75737420626520696e20746865206675747572650000604482015260640161033d565b6001546040516323b872dd60e01b8152336004820152306024820152604481018590526001600160a01b03909116906323b872dd906064016020604051808303816000875af1158015610eda573d6000803e3d6000fd5b505050506040513d601f19601f82011682018060405250810190610efe91906117bb565b610f415760405162461bcd60e51b81526020600482015260146024820152731554d110c81d1c985b9cd9995c8819985a5b195960621b604482015260640161033d565b600280549081906000610f538361196b565b91905055506040518060e00160405280336001600160a01b03168152602001866001600160a01b0316815260200185815260200160405180602001604052806000815250815260200160006005811115610faf57610faf6115c4565b81526020808201869052426040928301526000848152600380835290839020845181546001600160a01b03199081166001600160a01b03928316178355938601516001830180549095169116179092559183015160028201556060830151909182019061101c9082611992565b50608082015160048201805460ff19166001836005811115611040576110406115c4565b021790555060a0820151600582015560c09091015160069091015560008181526004602090815260409182902086905581518681529081018590526001600160a01b03871691339184917f487933e034710db4f40e8db61e822d2fff54215ca95e11baff632af66e1fbab6910160405180910390a4807fd3c221d5b0aba10ecbafdafc16a948672d7d45a8dcb069038786f81a75e06575856040516110e791815260200190565b60405180910390a290506111086001600080516020611a5383398151915255565b9392505050565b611117611481565b61112160006114ae565b565b61112b611465565b600081815260036020526040902080546001600160a01b031633146111925760405162461bcd60e51b815260206004820152601760248201527f4f6e6c792063726561746f722063616e2063616e63656c000000000000000000604482015260640161033d565b6000600482015460ff1660058111156111ad576111ad6115c4565b146112125760405162461bcd60e51b815260206004820152602f60248201527f5461736b206973206e6f74206f70656e2028616c72656164792061636365707460448201526e6564206f722066696e69736865642960881b606482015260840161033d565b60008281526004602052604090205461123d5760405162461bcd60e51b815260040161033d90611790565b60028101546004808301805460ff19166005179055600084815260208290526040808220919091556001548454915163a9059cbb60e01b81526001600160a01b039283169381019390935260248301849052169063a9059cbb906044016020604051808303816000875af11580156112b9573d6000803e3d6000fd5b505050506040513d601f19601f820116820180604052508101906112dd91906117bb565b61131e5760405162461bcd60e51b81526020600482015260126024820152711554d110c81c99599d5b990819985a5b195960721b604482015260640161033d565b604051818152339084907f06f63d695245e4cf8f0b7aae0b8da95876a4b173ba8d0d4466cc83c357dda3a8906020016104ed565b600360208190526000918252604090912080546001820154600283015493830180546001600160a01b039384169593909216939161138f906117dd565b80601f01602080910402602001604051908101604052809291908181526020018280546113bb906117dd565b80156114085780601f106113dd57610100808354040283529160200191611408565b820191906000526020600020905b8154815290600101906020018083116113eb57829003601f168201915b5050505060048301546005840154600690940154929360ff9091169290915087565b611432611481565b6001600160a01b03811661145c57604051631e4fbdf760e01b81526000600482015260240161033d565b61050e816114ae565b61146d6114fe565b6002600080516020611a5383398151915255565b6000546001600160a01b031633146111215760405163118cdaa760e01b815233600482015260240161033d565b600080546001600160a01b038381166001600160a01b0319831681178455604051919092169283917f8be0079c531659141344cd1fd0a4f28419497f9722a3daafe3b4186f6b6457e09190a35050565b600080516020611a538339815191525460020361112157604051633ee5aeb560e01b815260040160405180910390fd5b60006020828403121561154057600080fd5b5035919050565b80356001600160a01b038116811461155e57600080fd5b919050565b60006020828403121561157557600080fd5b61110882611547565b6000815180845260005b818110156115a457602081850181015186830182015201611588565b506000602082860101526020601f19601f83011685010191505092915050565b634e487b7160e01b600052602160045260246000fd5b600681106115f857634e487b7160e01b600052602160045260246000fd5b9052565b60208152600060018060a01b038084511660208401528060208501511660408401525060408301516060830152606083015160e0608084015261164361010084018261157e565b9050608084015161165760a08501826115da565b5060a084015160c084015260c084015160e08401528091505092915050565b60008060006040848603121561168b57600080fd5b83359250602084013567ffffffffffffffff808211156116aa57600080fd5b818601915086601f8301126116be57600080fd5b8135818111156116cd57600080fd5b8760208285010111156116df57600080fd5b6020830194508093505050509250925092565b6020810161170082846115da565b92915050565b60008060006060848603121561171b57600080fd5b61172484611547565b95602085013595506040909401359392505050565b6001600160a01b038881168252871660208201526040810186905260e06060820181905260009061176c9083018761157e565b905061177b60808301866115da565b60a082019390935260c0015295945050505050565b6020808252601190820152704e6f20657363726f772062616c616e636560781b604082015260600190565b6000602082840312156117cd57600080fd5b8151801515811461110857600080fd5b600181811c908216806117f157607f821691505b60208210810361181157634e487b7160e01b600052602260045260246000fd5b50919050565b634e487b7160e01b600052604160045260246000fd5b601f821115610d6e57600081815260208120601f850160051c810160208610156118545750805b601f850160051c820191505b8181101561187357828155600101611860565b505050505050565b67ffffffffffffffff83111561189357611893611817565b6118a7836118a183546117dd565b8361182d565b6000601f8411600181146118db57600085156118c35750838201355b600019600387901b1c1916600186901b178355611935565b600083815260209020601f19861690835b8281101561190c57868501358255602094850194600190920191016118ec565b50868210156119295760001960f88860031b161c19848701351681555b505060018560011b0183555b5050505050565b60208152816020820152818360408301376000818301604090810191909152601f909201601f19160101919050565b60006001820161198b57634e487b7160e01b600052601160045260246000fd5b5060010190565b815167ffffffffffffffff8111156119ac576119ac611817565b6119c0816119ba84546117dd565b8461182d565b602080601f8311600181146119f557600084156119dd5750858301515b600019600386901b1c1916600185901b178555611873565b600085815260208120601f198616915b82811015611a2457888601518255948401946001909101908401611a05565b5085821015611a425787850151600019600388901b60f8161c191681555b5050505050600190811b0190555056fe9b779b17422d0df92223018b32b4d1fa46e071723d6817e2486d003becc55f00a26469706673582212206d429c00680990f4e6852adf6e3a45e4cedcc001f55a204002df92109dd95e6364736f6c63430008140033",
  "linkReferences": {},
  "deployedLinkReferences": {}
}